{
  "_format": "hh-sol-artifact-1",
  "contractName": "Humans",
  "sourceName": "contracts/Humans.sol",
  "abi": [
    {
      "inputs": [],
      "stateMutability": "nonpayable",
      "type": "constructor"
    },
    {
      "inputs": [],
      "name": "ApprovalCallerNotOwnerNorApproved",
      "type": "error"
    },
    {
      "inputs": [],
      "name": "ApprovalQueryForNonexistentToken",
      "type": "error"
    },
    {
      "inputs": [],
      "name": "BalanceQueryForZeroAddress",
      "type": "error"
    },
    {
      "inputs": [],
      "name": "MintERC2309QuantityExceedsLimit",
      "type": "error"
    },
    {
      "inputs": [],
      "name": "MintToZeroAddress",
      "type": "error"
    },
    {
      "inputs": [],
      "name": "MintZeroQuantity",
      "type": "error"
    },
    {
      "inputs": [],
      "name": "OwnerQueryForNonexistentToken",
      "type": "error"
    },
    {
      "inputs": [],
      "name": "OwnershipNotInitializedForExtraData",
      "type": "error"
    },
    {
      "inputs": [],
      "name": "TransferCallerNotOwnerNorApproved",
      "type": "error"
    },
    {
      "inputs": [],
      "name": "TransferFromIncorrectOwner",
      "type": "error"
    },
    {
      "inputs": [],
      "name": "TransferToNonERC721ReceiverImplementer",
      "type": "error"
    },
    {
      "inputs": [],
      "name": "TransferToZeroAddress",
      "type": "error"
    },
    {
      "inputs": [],
      "name": "URIQueryForNonexistentToken",
      "type": "error"
    },
    {
      "anonymous": false,
      "inputs": [
        {
          "indexed": true,
          "internalType": "address",
          "name": "owner",
          "type": "address"
        },
        {
          "indexed": true,
          "internalType": "address",
          "name": "approved",
          "type": "address"
        },
        {
          "indexed": true,
          "internalType": "uint256",
          "name": "tokenId",
          "type": "uint256"
        }
      ],
      "name": "Approval",
      "type": "event"
    },
    {
      "anonymous": false,
      "inputs": [
        {
          "indexed": true,
          "internalType": "address",
          "name": "owner",
          "type": "address"
        },
        {
          "indexed": true,
          "internalType": "address",
          "name": "operator",
          "type": "address"
        },
        {
          "indexed": false,
          "internalType": "bool",
          "name": "approved",
          "type": "bool"
        }
      ],
      "name": "ApprovalForAll",
      "type": "event"
    },
    {
      "anonymous": false,
      "inputs": [
        {
          "indexed": true,
          "internalType": "uint256",
          "name": "fromTokenId",
          "type": "uint256"
        },
        {
          "indexed": false,
          "internalType": "uint256",
          "name": "toTokenId",
          "type": "uint256"
        },
        {
          "indexed": true,
          "internalType": "address",
          "name": "from",
          "type": "address"
        },
        {
          "indexed": true,
          "internalType": "address",
          "name": "to",
          "type": "address"
        }
      ],
      "name": "ConsecutiveTransfer",
      "type": "event"
    },
    {
      "anonymous": false,
      "inputs": [
        {
          "indexed": true,
          "internalType": "address",
          "name": "from",
          "type": "address"
        },
        {
          "indexed": true,
          "internalType": "address",
          "name": "to",
          "type": "address"
        },
        {
          "indexed": true,
          "internalType": "uint256",
          "name": "tokenId",
          "type": "uint256"
        }
      ],
      "name": "Transfer",
      "type": "event"
    },
    {
      "inputs": [
        {
          "internalType": "address",
          "name": "to",
          "type": "address"
        },
        {
          "internalType": "uint256",
          "name": "tokenId",
          "type": "uint256"
        }
      ],
      "name": "approve",
      "outputs": [],
      "stateMutability": "payable",
      "type": "function"
    },
    {
      "inputs": [
        {
          "internalType": "address",
          "name": "owner",
          "type": "address"
        }
      ],
      "name": "balanceOf",
      "outputs": [
        {
          "internalType": "uint256",
          "name": "",
          "type": "uint256"
        }
      ],
      "stateMutability": "view",
      "type": "function"
    },
    {
      "inputs": [],
      "name": "decimals",
      "outputs": [
        {
          "internalType": "uint8",
          "name": "",
          "type": "uint8"
        }
      ],
      "stateMutability": "pure",
      "type": "function"
    },
    {
      "inputs": [
        {
          "internalType": "uint256",
          "name": "tokenId",
          "type": "uint256"
        }
      ],
      "name": "getApproved",
      "outputs": [
        {
          "internalType": "address",
          "name": "",
          "type": "address"
        }
      ],
      "stateMutability": "view",
      "type": "function"
    },
    {
      "inputs": [
        {
          "internalType": "address",
          "name": "owner",
          "type": "address"
        },
        {
          "internalType": "address",
          "name": "operator",
          "type": "address"
        }
      ],
      "name": "isApprovedForAll",
      "outputs": [
        {
          "internalType": "bool",
          "name": "",
          "type": "bool"
        }
      ],
      "stateMutability": "view",
      "type": "function"
    },
    {
      "inputs": [],
      "name": "maximumvalue",
      "outputs": [
        {
          "internalType": "uint256",
          "name": "",
          "type": "uint256"
        }
      ],
      "stateMutability": "view",
      "type": "function"
    },
    {
      "inputs": [
        {
          "internalType": "uint256",
          "name": "quantity",
          "type": "uint256"
        }
      ],
      "name": "mint",
      "outputs": [],
      "stateMutability": "payable",
      "type": "function"
    },
    {
      "inputs": [],
      "name": "name",
      "outputs": [
        {
          "internalType": "string",
          "name": "",
          "type": "string"
        }
      ],
      "stateMutability": "view",
      "type": "function"
    },
    {
      "inputs": [],
      "name": "owner",
      "outputs": [
        {
          "internalType": "address",
          "name": "",
          "type": "address"
        }
      ],
      "stateMutability": "view",
      "type": "function"
    },
    {
      "inputs": [
        {
          "internalType": "uint256",
          "name": "tokenId",
          "type": "uint256"
        }
      ],
      "name": "ownerOf",
      "outputs": [
        {
          "internalType": "address",
          "name": "",
          "type": "address"
        }
      ],
      "stateMutability": "view",
      "type": "function"
    },
    {
      "inputs": [],
      "name": "prompt",
      "outputs": [
        {
          "internalType": "string",
          "name": "",
          "type": "string"
        }
      ],
      "stateMutability": "view",
      "type": "function"
    },
    {
      "inputs": [],
      "name": "promptDescription",
      "outputs": [
        {
          "internalType": "string",
          "name": "",
          "type": "string"
        }
      ],
      "stateMutability": "view",
      "type": "function"
    },
    {
      "inputs": [
        {
          "internalType": "address",
          "name": "from",
          "type": "address"
        },
        {
          "internalType": "address",
          "name": "to",
          "type": "address"
        },
        {
          "internalType": "uint256",
          "name": "tokenId",
          "type": "uint256"
        }
      ],
      "name": "safeTransferFrom",
      "outputs": [],
      "stateMutability": "payable",
      "type": "function"
    },
    {
      "inputs": [
        {
          "internalType": "address",
          "name": "from",
          "type": "address"
        },
        {
          "internalType": "address",
          "name": "to",
          "type": "address"
        },
        {
          "internalType": "uint256",
          "name": "tokenId",
          "type": "uint256"
        },
        {
          "internalType": "bytes",
          "name": "_data",
          "type": "bytes"
        }
      ],
      "name": "safeTransferFrom",
      "outputs": [],
      "stateMutability": "payable",
      "type": "function"
    },
    {
      "inputs": [
        {
          "internalType": "address",
          "name": "operator",
          "type": "address"
        },
        {
          "internalType": "bool",
          "name": "approved",
          "type": "bool"
        }
      ],
      "name": "setApprovalForAll",
      "outputs": [],
      "stateMutability": "nonpayable",
      "type": "function"
    },
    {
      "inputs": [
        {
          "internalType": "bytes4",
          "name": "interfaceId",
          "type": "bytes4"
        }
      ],
      "name": "supportsInterface",
      "outputs": [
        {
          "internalType": "bool",
          "name": "",
          "type": "bool"
        }
      ],
      "stateMutability": "view",
      "type": "function"
    },
    {
      "inputs": [],
      "name": "symbol",
      "outputs": [
        {
          "internalType": "string",
          "name": "",
          "type": "string"
        }
      ],
      "stateMutability": "view",
      "type": "function"
    },
    {
      "inputs": [
        {
          "internalType": "uint256",
          "name": "tokenId",
          "type": "uint256"
        }
      ],
      "name": "tokenURI",
      "outputs": [
        {
          "internalType": "string",
          "name": "",
          "type": "string"
        }
      ],
      "stateMutability": "view",
      "type": "function"
    },
    {
      "inputs": [],
      "name": "totalSupply",
      "outputs": [
        {
          "internalType": "uint256",
          "name": "",
          "type": "uint256"
        }
      ],
      "stateMutability": "view",
      "type": "function"
    },
    {
      "inputs": [
        {
          "internalType": "address",
          "name": "from",
          "type": "address"
        },
        {
          "internalType": "address",
          "name": "to",
          "type": "address"
        },
        {
          "internalType": "uint256",
          "name": "tokenId",
          "type": "uint256"
        }
      ],
      "name": "transferFrom",
      "outputs": [],
      "stateMutability": "payable",
      "type": "function"
    }
  ],
  "bytecode": "0x608060405260056008556040518060400160405280601c81526020017f48756d616e73207769746820646966666572656e7420706f7765727300000000815250600990816200004f9190620003f7565b506040518060800160405280605081526020016200245560509139600a90816200007a9190620003f7565b503480156200008857600080fd5b506040518060400160405280600681526020017f68756d616e7300000000000000000000000000000000000000000000000000008152506040518060400160405280600381526020017f43525400000000000000000000000000000000000000000000000000000000008152508160029081620001069190620003f7565b508060039081620001189190620003f7565b50620001296200017860201b60201c565b600081905550505033600b60006101000a81548173ffffffffffffffffffffffffffffffffffffffff021916908373ffffffffffffffffffffffffffffffffffffffff160217905550620004de565b600090565b600081519050919050565b7f4e487b7100000000000000000000000000000000000000000000000000000000600052604160045260246000fd5b7f4e487b7100000000000000000000000000000000000000000000000000000000600052602260045260246000fd5b60006002820490506001821680620001ff57607f821691505b602082108103620002155762000214620001b7565b5b50919050565b60008190508160005260206000209050919050565b60006020601f8301049050919050565b600082821b905092915050565b6000600883026200027f7fffffffffffffffffffffffffffffffffffffffffffffffffffffffffffffffff8262000240565b6200028b868362000240565b95508019841693508086168417925050509392505050565b6000819050919050565b6000819050919050565b6000620002d8620002d2620002cc84620002a3565b620002ad565b620002a3565b9050919050565b6000819050919050565b620002f483620002b7565b6200030c6200030382620002df565b8484546200024d565b825550505050565b600090565b6200032362000314565b62000330818484620002e9565b505050565b5b8181101562000358576200034c60008262000319565b60018101905062000336565b5050565b601f821115620003a75762000371816200021b565b6200037c8462000230565b810160208510156200038c578190505b620003a46200039b8562000230565b83018262000335565b50505b505050565b600082821c905092915050565b6000620003cc60001984600802620003ac565b1980831691505092915050565b6000620003e78383620003b9565b9150826002028217905092915050565b62000402826200017d565b67ffffffffffffffff8111156200041e576200041d62000188565b5b6200042a8254620001e6565b620004378282856200035c565b600060209050601f8311600181146200046f57600084156200045a578287015190505b620004668582620003d9565b865550620004d6565b601f1984166200047f866200021b565b60005b82811015620004a95784890151825560018201915060208501945060208101905062000482565b86831015620004c95784890151620004c5601f891682620003b9565b8355505b6001600288020188555050505b505050505050565b611f6780620004ee6000396000f3fe60806040526004361061011f5760003560e01c806370a08231116100a0578063a0712d6811610064578063a0712d68146103c4578063a22cb465146103e0578063b88d4fde14610409578063c87b56dd14610425578063e985e9c5146104625761011f565b806370a08231146102db5780637c65d711146103185780638da5cb5b14610343578063953637311461036e57806395d89b41146103995761011f565b806323b872dd116100e757806323b872dd14610210578063313ce5671461022c57806342842e0e14610257578063529672bf146102735780636352211e1461029e5761011f565b806301ffc9a71461012457806306fdde0314610161578063081812fc1461018c578063095ea7b3146101c957806318160ddd146101e5575b600080fd5b34801561013057600080fd5b5061014b60048036038101906101469190611714565b61049f565b604051610158919061175c565b60405180910390f35b34801561016d57600080fd5b50610176610531565b6040516101839190611807565b60405180910390f35b34801561019857600080fd5b506101b360048036038101906101ae919061185f565b6105c3565b6040516101c091906118cd565b60405180910390f35b6101e360048036038101906101de9190611914565b610642565b005b3480156101f157600080fd5b506101fa610786565b6040516102079190611963565b60405180910390f35b61022a6004803603810190610225919061197e565b61079d565b005b34801561023857600080fd5b50610241610abf565b60405161024e91906119ed565b60405180910390f35b610271600480360381019061026c919061197e565b610ac4565b005b34801561027f57600080fd5b50610288610ae4565b6040516102959190611963565b60405180910390f35b3480156102aa57600080fd5b506102c560048036038101906102c0919061185f565b610aea565b6040516102d291906118cd565b60405180910390f35b3480156102e757600080fd5b5061030260048036038101906102fd9190611a08565b610afc565b60405161030f9190611963565b60405180910390f35b34801561032457600080fd5b5061032d610bb4565b60405161033a9190611807565b60405180910390f35b34801561034f57600080fd5b50610358610c42565b60405161036591906118cd565b60405180910390f35b34801561037a57600080fd5b50610383610c68565b6040516103909190611807565b60405180910390f35b3480156103a557600080fd5b506103ae610cfa565b6040516103bb9190611807565b60405180910390f35b6103de60048036038101906103d9919061185f565b610d8c565b005b3480156103ec57600080fd5b5061040760048036038101906104029190611a61565b610df0565b005b610423600480360381019061041e9190611bd6565b610efb565b005b34801561043157600080fd5b5061044c6004803603810190610447919061185f565b610f6e565b6040516104599190611807565b60405180910390f35b34801561046e57600080fd5b5061048960048036038101906104849190611c59565b61100c565b604051610496919061175c565b60405180910390f35b60006301ffc9a760e01b827bffffffffffffffffffffffffffffffffffffffffffffffffffffffff191614806104fa57506380ac58cd60e01b827bffffffffffffffffffffffffffffffffffffffffffffffffffffffff1916145b8061052a5750635b5e139f60e01b827bffffffffffffffffffffffffffffffffffffffffffffffffffffffff1916145b9050919050565b60606002805461054090611cc8565b80601f016020809104026020016040519081016040528092919081815260200182805461056c90611cc8565b80156105b95780601f1061058e576101008083540402835291602001916105b9565b820191906000526020600020905b81548152906001019060200180831161059c57829003601f168201915b5050505050905090565b60006105ce826110a0565b610604576040517fcf4700e400000000000000000000000000000000000000000000000000000000815260040160405180910390fd5b6006600083815260200190815260200160002060000160009054906101000a900473ffffffffffffffffffffffffffffffffffffffff169050919050565b600061064d82610aea565b90508073ffffffffffffffffffffffffffffffffffffffff1661066e6110ff565b73ffffffffffffffffffffffffffffffffffffffff16146106d15761069a816106956110ff565b61100c565b6106d0576040517fcfb3b94200000000000000000000000000000000000000000000000000000000815260040160405180910390fd5b5b826006600084815260200190815260200160002060000160006101000a81548173ffffffffffffffffffffffffffffffffffffffff021916908373ffffffffffffffffffffffffffffffffffffffff160217905550818373ffffffffffffffffffffffffffffffffffffffff168273ffffffffffffffffffffffffffffffffffffffff167f8c5be1e5ebec7d5bd14f71427d1e84f3dd0314c0f7b2291e5b200ac8c7c3b92560405160405180910390a4505050565b6000610790611107565b6001546000540303905090565b60006107a88261110c565b90508373ffffffffffffffffffffffffffffffffffffffff168173ffffffffffffffffffffffffffffffffffffffff161461080f576040517fa114810000000000000000000000000000000000000000000000000000000000815260040160405180910390fd5b60008061081b846111d8565b91509150610831818761082c6110ff565b6111ff565b61087d57610846866108416110ff565b61100c565b61087c576040517f59c896be00000000000000000000000000000000000000000000000000000000815260040160405180910390fd5b5b600073ffffffffffffffffffffffffffffffffffffffff168573ffffffffffffffffffffffffffffffffffffffff16036108e3576040517fea553b3400000000000000000000000000000000000000000000000000000000815260040160405180910390fd5b6108f08686866001611243565b80156108fb57600082555b600560008773ffffffffffffffffffffffffffffffffffffffff1673ffffffffffffffffffffffffffffffffffffffff168152602001908152602001600020600081546001900391905081905550600560008673ffffffffffffffffffffffffffffffffffffffff1673ffffffffffffffffffffffffffffffffffffffff16815260200190815260200160002060008154600101919050819055506109c9856109a5888887611249565b7c020000000000000000000000000000000000000000000000000000000017611271565b600460008681526020019081526020016000208190555060007c0200000000000000000000000000000000000000000000000000000000841603610a4f5760006001850190506000600460008381526020019081526020016000205403610a4d576000548114610a4c578360046000838152602001908152602001600020819055505b5b505b838573ffffffffffffffffffffffffffffffffffffffff168773ffffffffffffffffffffffffffffffffffffffff167fddf252ad1be2c89b69c2b068fc378daa952ba7f163c4a11628f55a4df523b3ef60405160405180910390a4610ab7868686600161129c565b505050505050565b600090565b610adf83838360405180602001604052806000815250610efb565b505050565b60085481565b6000610af58261110c565b9050919050565b60008073ffffffffffffffffffffffffffffffffffffffff168273ffffffffffffffffffffffffffffffffffffffff1603610b63576040517f8f4eb60400000000000000000000000000000000000000000000000000000000815260040160405180910390fd5b67ffffffffffffffff600560008473ffffffffffffffffffffffffffffffffffffffff1673ffffffffffffffffffffffffffffffffffffffff16815260200190815260200160002054169050919050565b60098054610bc190611cc8565b80601f0160208091040260200160405190810160405280929190818152602001828054610bed90611cc8565b8015610c3a5780601f10610c0f57610100808354040283529160200191610c3a565b820191906000526020600020905b815481529060010190602001808311610c1d57829003601f168201915b505050505081565b600b60009054906101000a900473ffffffffffffffffffffffffffffffffffffffff1681565b606060098054610c7790611cc8565b80601f0160208091040260200160405190810160405280929190818152602001828054610ca390611cc8565b8015610cf05780601f10610cc557610100808354040283529160200191610cf0565b820191906000526020600020905b815481529060010190602001808311610cd357829003601f168201915b5050505050905090565b606060038054610d0990611cc8565b80601f0160208091040260200160405190810160405280929190818152602001828054610d3590611cc8565b8015610d825780601f10610d5757610100808354040283529160200191610d82565b820191906000526020600020905b815481529060010190602001808311610d6557829003601f168201915b5050505050905090565b60085481610d98610786565b610da29190611d28565b1115610de3576040517f08c379a0000000000000000000000000000000000000000000000000000000008152600401610dda90611dce565b60405180910390fd5b610ded33826112a2565b50565b8060076000610dfd6110ff565b73ffffffffffffffffffffffffffffffffffffffff1673ffffffffffffffffffffffffffffffffffffffff16815260200190815260200160002060008473ffffffffffffffffffffffffffffffffffffffff1673ffffffffffffffffffffffffffffffffffffffff16815260200190815260200160002060006101000a81548160ff0219169083151502179055508173ffffffffffffffffffffffffffffffffffffffff16610eaa6110ff565b73ffffffffffffffffffffffffffffffffffffffff167f17307eab39ab6107e8899845ad3d59bd9653f200f220920489ca2b5937696c3183604051610eef919061175c565b60405180910390a35050565b610f0684848461079d565b60008373ffffffffffffffffffffffffffffffffffffffff163b14610f6857610f318484848461145d565b610f67576040517fd1a57ed600000000000000000000000000000000000000000000000000000000815260040160405180910390fd5b5b50505050565b6060610f79826110a0565b610faf576040517fa14c4b5000000000000000000000000000000000000000000000000000000000815260040160405180910390fd5b6000610fb96115ad565b90506000815103610fd95760405180602001604052806000815250611004565b80610fe38461163f565b604051602001610ff4929190611e2a565b6040516020818303038152906040525b915050919050565b6000600760008473ffffffffffffffffffffffffffffffffffffffff1673ffffffffffffffffffffffffffffffffffffffff16815260200190815260200160002060008373ffffffffffffffffffffffffffffffffffffffff1673ffffffffffffffffffffffffffffffffffffffff16815260200190815260200160002060009054906101000a900460ff16905092915050565b6000816110ab611107565b111580156110ba575060005482105b80156110f8575060007c0100000000000000000000000000000000000000000000000000000000600460008581526020019081526020016000205416145b9050919050565b600033905090565b600090565b6000808290508061111b611107565b116111a1576000548110156111a05760006004600083815260200190815260200160002054905060007c010000000000000000000000000000000000000000000000000000000082160361119e575b6000810361119457600460008360019003935083815260200190815260200160002054905061116a565b80925050506111d3565b505b5b6040517fdf2d9b4200000000000000000000000000000000000000000000000000000000815260040160405180910390fd5b919050565b60008060006006600085815260200190815260200160002090508092508254915050915091565b600073ffffffffffffffffffffffffffffffffffffffff8316925073ffffffffffffffffffffffffffffffffffffffff821691508382148383141790509392505050565b50505050565b60008060e883901c905060e861126086868461168f565b62ffffff16901b9150509392505050565b600073ffffffffffffffffffffffffffffffffffffffff83169250814260a01b178317905092915050565b50505050565b600080549050600082036112e2576040517fb562e8dd00000000000000000000000000000000000000000000000000000000815260040160405180910390fd5b6112ef6000848385611243565b600160406001901b178202600560008573ffffffffffffffffffffffffffffffffffffffff1673ffffffffffffffffffffffffffffffffffffffff16815260200190815260200160002060008282540192505081905550611366836113576000866000611249565b61136085611698565b17611271565b6004600083815260200190815260200160002081905550600080838301905073ffffffffffffffffffffffffffffffffffffffff85169150828260007fddf252ad1be2c89b69c2b068fc378daa952ba7f163c4a11628f55a4df523b3ef600080a4600183015b81811461140757808360007fddf252ad1be2c89b69c2b068fc378daa952ba7f163c4a11628f55a4df523b3ef600080a46001810190506113cc565b5060008203611442576040517f2e07630000000000000000000000000000000000000000000000000000000000815260040160405180910390fd5b806000819055505050611458600084838561129c565b505050565b60008373ffffffffffffffffffffffffffffffffffffffff1663150b7a026114836110ff565b8786866040518563ffffffff1660e01b81526004016114a59493929190611ea3565b6020604051808303816000875af19250505080156114e157506040513d601f19601f820116820180604052508101906114de9190611f04565b60015b61155a573d8060008114611511576040519150601f19603f3d011682016040523d82523d6000602084013e611516565b606091505b506000815103611552576040517fd1a57ed600000000000000000000000000000000000000000000000000000000815260040160405180910390fd5b805181602001fd5b63150b7a0260e01b7bffffffffffffffffffffffffffffffffffffffffffffffffffffffff1916817bffffffffffffffffffffffffffffffffffffffffffffffffffffffff191614915050949350505050565b6060600a80546115bc90611cc8565b80601f01602080910402602001604051908101604052809291908181526020018280546115e890611cc8565b80156116355780601f1061160a57610100808354040283529160200191611635565b820191906000526020600020905b81548152906001019060200180831161161857829003601f168201915b5050505050905090565b606060a060405101806040526020810391506000825281835b60011561167a57600184039350600a81066030018453600a8104905080611658575b50828103602084039350808452505050919050565b60009392505050565b60006001821460e11b9050919050565b6000604051905090565b600080fd5b600080fd5b60007fffffffff0000000000000000000000000000000000000000000000000000000082169050919050565b6116f1816116bc565b81146116fc57600080fd5b50565b60008135905061170e816116e8565b92915050565b60006020828403121561172a576117296116b2565b5b6000611738848285016116ff565b91505092915050565b60008115159050919050565b61175681611741565b82525050565b6000602082019050611771600083018461174d565b92915050565b600081519050919050565b600082825260208201905092915050565b60005b838110156117b1578082015181840152602081019050611796565b60008484015250505050565b6000601f19601f8301169050919050565b60006117d982611777565b6117e38185611782565b93506117f3818560208601611793565b6117fc816117bd565b840191505092915050565b6000602082019050818103600083015261182181846117ce565b905092915050565b6000819050919050565b61183c81611829565b811461184757600080fd5b50565b60008135905061185981611833565b92915050565b600060208284031215611875576118746116b2565b5b60006118838482850161184a565b91505092915050565b600073ffffffffffffffffffffffffffffffffffffffff82169050919050565b60006118b78261188c565b9050919050565b6118c7816118ac565b82525050565b60006020820190506118e260008301846118be565b92915050565b6118f1816118ac565b81146118fc57600080fd5b50565b60008135905061190e816118e8565b92915050565b6000806040838503121561192b5761192a6116b2565b5b6000611939858286016118ff565b925050602061194a8582860161184a565b9150509250929050565b61195d81611829565b82525050565b60006020820190506119786000830184611954565b92915050565b600080600060608486031215611997576119966116b2565b5b60006119a5868287016118ff565b93505060206119b6868287016118ff565b92505060406119c78682870161184a565b9150509250925092565b600060ff82169050919050565b6119e7816119d1565b82525050565b6000602082019050611a0260008301846119de565b92915050565b600060208284031215611a1e57611a1d6116b2565b5b6000611a2c848285016118ff565b91505092915050565b611a3e81611741565b8114611a4957600080fd5b50565b600081359050611a5b81611a35565b92915050565b60008060408385031215611a7857611a776116b2565b5b6000611a86858286016118ff565b9250506020611a9785828601611a4c565b9150509250929050565b600080fd5b600080fd5b7f4e487b7100000000000000000000000000000000000000000000000000000000600052604160045260246000fd5b611ae3826117bd565b810181811067ffffffffffffffff82111715611b0257611b01611aab565b5b80604052505050565b6000611b156116a8565b9050611b218282611ada565b919050565b600067ffffffffffffffff821115611b4157611b40611aab565b5b611b4a826117bd565b9050602081019050919050565b82818337600083830152505050565b6000611b79611b7484611b26565b611b0b565b905082815260208101848484011115611b9557611b94611aa6565b5b611ba0848285611b57565b509392505050565b600082601f830112611bbd57611bbc611aa1565b5b8135611bcd848260208601611b66565b91505092915050565b60008060008060808587031215611bf057611bef6116b2565b5b6000611bfe878288016118ff565b9450506020611c0f878288016118ff565b9350506040611c208782880161184a565b925050606085013567ffffffffffffffff811115611c4157611c406116b7565b5b611c4d87828801611ba8565b91505092959194509250565b60008060408385031215611c7057611c6f6116b2565b5b6000611c7e858286016118ff565b9250506020611c8f858286016118ff565b9150509250929050565b7f4e487b7100000000000000000000000000000000000000000000000000000000600052602260045260246000fd5b60006002820490506001821680611ce057607f821691505b602082108103611cf357611cf2611c99565b5b50919050565b7f4e487b7100000000000000000000000000000000000000000000000000000000600052601160045260246000fd5b6000611d3382611829565b9150611d3e83611829565b9250828201905080821115611d5657611d55611cf9565b5b92915050565b7f4d6178206c696d6974206973203520646f6e742074727920746f206d696e742060008201527f6d6f726520746861203500000000000000000000000000000000000000000000602082015250565b6000611db8602a83611782565b9150611dc382611d5c565b604082019050919050565b60006020820190508181036000830152611de781611dab565b9050919050565b600081905092915050565b6000611e0482611777565b611e0e8185611dee565b9350611e1e818560208601611793565b80840191505092915050565b6000611e368285611df9565b9150611e428284611df9565b91508190509392505050565b600081519050919050565b600082825260208201905092915050565b6000611e7582611e4e565b611e7f8185611e59565b9350611e8f818560208601611793565b611e98816117bd565b840191505092915050565b6000608082019050611eb860008301876118be565b611ec560208301866118be565b611ed26040830185611954565b8181036060830152611ee48184611e6a565b905095945050505050565b600081519050611efe816116e8565b92915050565b600060208284031215611f1a57611f196116b2565b5b6000611f2884828501611eef565b9150509291505056fea2646970667358221220affc79738120338eb572980e6174c1a94ebdbf9bc576e9e182341fd1b6642aa064736f6c6343000812003368747470733a2f2f676174657761792e70696e6174612e636c6f75642f697066732f516d62485467545a664e74384352706d664b59326a555661444c784759554737646e426a56733361754252344738",
  "linkReferences": {},
  "deployedLinkReferences": {}
}